:10034800039F250D9949411B011911C163856171ED
:080358007FFDEFFFFEFDFBF746
:0B039800041A11111111011800C1829C
:10000E00D2B1D2B075A8827589F1758CF7E4F58AF4
:0F001E00D28C7FE87E0312031430A0030200D9B6
:10002D00C2977D9F7C01E4FF1202EB7FB87E0B121D
:10003D0003147F0112025F8E088F097F0212025F87
:10004D008E0A8F0B7D007C507F051202EB7F041210
:10005D00025F8E0C8F0D7F0312025F8E0E8F0F7F4E
:10006D00B87E0B120314D297E50BAE0A7803CEC3FC
:10007D0013CE13D8F9F5118E107802C333CE33CECB
:10008D00D8F9F5118E10FF7C037DE81201D67C00A6
:10009D007D0A1201D68D1AAE10AF117C007D64124F
:1000AD0001D67C007D0A1201D68D1BAE10AF117CDE
:1000BD00007D0A1201D67C007D0A1201D68D1CAE80
:0C00CD0010AF117C007D0A1201D68D1DC1
:0900D90030A303020027020027F6
:03000B0002016E81
:10016E00C0E0C083C082C0D075D000C000758CF7CF
:10017E00758A007580FFE5181460101460171460FE
:10018E001E24037022C290D2918004D290C291D2CA
:10019E0092D2938012D290D291C292D2938008D2F0
:1001AE0090D291D292C293741A2518F8E690034811
:1001BE0093F5800518E518B40403751800D000D027
:0801CE00D0D082D083D0E032D2
:1002EB008F128C138D141203757F8012028FAF1235
:1002FB0012028FE513FF12028FAF14E51412028F57
:03030B0002038862
:02025F008F12FC
:100261001203757F8012028FAF1212028F12037573
:100271007F8112028F12022B8F1512022BAD07E51F
:0D02810015F513EDF514120388AE13AF143C
:01028E00224D
:10037500D2B0120310D2B1120310C2B07F017E00B9
:030385000203145C
:1003880012030EC2B0120310D2B1120310D2B0225F
:02028F008F16C8
:10029100E4F517C374079517FFE516A80708800250
:1002A100C313D8FC139200A200920112032C05176C
:0C02B100C3E5176480948840DA0202BDA7
:10032C0012030EA20192B0120310D2B17F027E0012
:0C033C00120314C2B17F017E0002031402
:10036000120310D2B1120310A2B0920012031012A5
:04037000030EA200D6
:010374002266
:10022B00E4F516D2B0F519E51625E0F516120360C4
:10023B00E43342160519E519C3940840EA12030E7C
:10024B00C2B0120310D2B17F027E0012031412034C
:03025B000EAF16CD
:01025E00227D
:1002BD00D2B0120310D2B130B014C2967F887E1323
:1002CD00120314D2967F887E1312031480E97F02E5
:0E02DD007E00120314C2B17F017E00020314E2
:06030E00C2B17F017E0078
:10031400E4FDFCC3ED9FEC9E500DE4FB0BBB06FC1F
:070324000DBD00010C80EC8F
:01032B0022AF
:030000000200E219
:0C00E200787FE4F6D8FD7581200201292A
:1001D600BC000BBE0029EF8DF084FFADF022E4CC0D
:1001E600F875F008EF2FFFEE33FEEC33FCEE9DECD6
:1001F600984005FCEE9DFE0FD5F0E9E4CEFD22ED1C
:10020600F8F5F0EE8420D21CFEADF075F008EF2F65
:10021600FFED33FD4007985006D5F0F222C398FD56
:050226000FD5F0EA22F3
:1000EE0002000EE493A3F8E493A34003F68001F21A
:1000FE0008DFF48029E493A3F85407240CC8C33313
:10010E00C4540F4420C8834004F456800146F6DFE1
:10011E00E4800B0102040810204080900398E47ED6
:10012E00019360BCA3FF543F30E509541FFEE493D6
:10013E00A360010ECF54C025E060A840B8E493A39D
:10014E00FAE493A3F8E493A3C8C582C8CAC583CAC8
:10015E00F0A3C8C582C8CAC583CADFE9DEE780BE80
:0103A3000059
:00000001FF
